:100000000C944A000C945C000C945C000C945C0012
:100010000C945C000C945C000C945C000C945C00F0
:100020000C945C000C945C000C945C000C945C00E0
:100030000C945C000C945C000C945C000C945C00D0
:100040000C945C000C945C000C945C000C945C00C0
:100050000C945C000C945C000C945C000C945C00B0
:100060000C945C000C9483000C945C000C945C0079
:100070000C945C000C945C000C945C000C945C0090
:100080000C945C000C945C000C945C000C945C0080
:100090000C945C0011241FBECFEFD0E1DEBFCDBFBA
:1000A00021E0A0E0B1E001C01D92A031B207E1F76C
:1000B0000E945E000C94AF000C940000F894E0E005
:1000C000F1E08EE091E090878783138682E086835B
:1000D00020E034E033832283818380EC80937C00B2
:1000E000EAE7F0E088E0808387E08083789480818D
:1000F000806C808380917800EEE0F1E080838091D5
:1001000079008183F7CF1F920F920FB60F921124BF
:100110008F939F9380E094E090930301809302017A
:1001200080910C0190910D0180910C0190910D0135
:10013000079754F480910C0190910D0101969093D2
:100140000D0180930C0104C010920D0110920C015E
:100150009F918F910F900FBE0F901F901895F8945C
:02016000FFCFCF
:00000001FF
